{
	"02ValueType.sol": {
		"ValueTypes": {
			"abi": [
				{
					"inputs": [],
					"name": "_address",
					"outputs": [
						{
							"internalType": "address",
							"name": "",
							"type": "address"
						}
					],
					"stateMutability": "view",
					"type": "function"
				},
				{
					"inputs": [],
					"name": "_address1",
					"outputs": [
						{
							"internalType": "address payable",
							"name": "",
							"type": "address"
						}
					],
					"stateMutability": "view",
					"type": "function"
				},
				{
					"inputs": [],
					"name": "_bool",
					"outputs": [
						{
							"internalType": "bool",
							"name": "",
							"type": "bool"
						}
					],
					"stateMutability": "view",
					"type": "function"
				},
				{
					"inputs": [],
					"name": "_bool1",
					"outputs": [
						{
							"internalType": "bool",
							"name": "",
							"type": "bool"
						}
					],
					"stateMutability": "view",
					"type": "function"
				},
				{
					"inputs": [],
					"name": "_bool2",
					"outputs": [
						{
							"internalType": "bool",
							"name": "",
							"type": "bool"
						}
					],
					"stateMutability": "view",
					"type": "function"
				},
				{
					"inputs": [],
					"name": "_bool3",
					"outputs": [
						{
							"internalType": "bool",
							"name": "",
							"type": "bool"
						}
					],
					"stateMutability": "view",
					"type": "function"
				},
				{
					"inputs": [],
					"name": "_bool4",
					"outputs": [
						{
							"internalType": "bool",
							"name": "",
							"type": "bool"
						}
					],
					"stateMutability": "view",
					"type": "function"
				},
				{
					"inputs": [],
					"name": "_bool5",
					"outputs": [
						{
							"internalType": "bool",
							"name": "",
							"type": "bool"
						}
					],
					"stateMutability": "view",
					"type": "function"
				},
				{
					"inputs": [],
					"name": "_byte",
					"outputs": [
						{
							"internalType": "bytes1",
							"name": "",
							"type": "bytes1"
						}
					],
					"stateMutability": "view",
					"type": "function"
				},
				{
					"inputs": [],
					"name": "_byte1",
					"outputs": [
						{
							"internalType": "bytes1",
							"name": "",
							"type": "bytes1"
						}
					],
					"stateMutability": "view",
					"type": "function"
				},
				{
					"inputs": [],
					"name": "_byte2",
					"outputs": [
						{
							"internalType": "bytes1",
							"name": "",
							"type": "bytes1"
						}
					],
					"stateMutability": "view",
					"type": "function"
				},
				{
					"inputs": [],
					"name": "_byte32",
					"outputs": [
						{
							"internalType": "bytes32",
							"name": "",
							"type": "bytes32"
						}
					],
					"stateMutability": "view",
					"type": "function"
				},
				{
					"inputs": [],
					"name": "_default_bool",
					"outputs": [
						{
							"internalType": "bool",
							"name": "",
							"type": "bool"
						}
					],
					"stateMutability": "view",
					"type": "function"
				},
				{
					"inputs": [],
					"name": "_int",
					"outputs": [
						{
							"internalType": "int256",
							"name": "",
							"type": "int256"
						}
					],
					"stateMutability": "view",
					"type": "function"
				},
				{
					"inputs": [],
					"name": "_maxInt",
					"outputs": [
						{
							"internalType": "int256",
							"name": "",
							"type": "int256"
						}
					],
					"stateMutability": "view",
					"type": "function"
				},
				{
					"inputs": [],
					"name": "_minInt",
					"outputs": [
						{
							"internalType": "int256",
							"name": "",
							"type": "int256"
						}
					],
					"stateMutability": "view",
					"type": "function"
				},
				{
					"inputs": [],
					"name": "_number",
					"outputs": [
						{
							"internalType": "uint256",
							"name": "",
							"type": "uint256"
						}
					],
					"stateMutability": "view",
					"type": "function"
				},
				{
					"inputs": [],
					"name": "_number1",
					"outputs": [
						{
							"internalType": "uint256",
							"name": "",
							"type": "uint256"
						}
					],
					"stateMutability": "view",
					"type": "function"
				},
				{
					"inputs": [],
					"name": "_number2",
					"outputs": [
						{
							"internalType": "uint256",
							"name": "",
							"type": "uint256"
						}
					],
					"stateMutability": "view",
					"type": "function"
				},
				{
					"inputs": [],
					"name": "_number3",
					"outputs": [
						{
							"internalType": "uint256",
							"name": "",
							"type": "uint256"
						}
					],
					"stateMutability": "view",
					"type": "function"
				},
				{
					"inputs": [],
					"name": "_numberbool",
					"outputs": [
						{
							"internalType": "bool",
							"name": "",
							"type": "bool"
						}
					],
					"stateMutability": "view",
					"type": "function"
				},
				{
					"inputs": [],
					"name": "_uint",
					"outputs": [
						{
							"internalType": "uint256",
							"name": "",
							"type": "uint256"
						}
					],
					"stateMutability": "view",
					"type": "function"
				},
				{
					"inputs": [],
					"name": "balance",
					"outputs": [
						{
							"internalType": "uint256",
							"name": "",
							"type": "uint256"
						}
					],
					"stateMutability": "view",
					"type": "function"
				}
			],
			"devdoc": {
				"kind": "dev",
				"methods": {},
				"version": 1
			},
			"evm": {
				"assembly": "    /* \"02ValueType.sol\":58:1431  contract ValueTypes {... */\n  mstore(0x40, 0x80)\n    /* \"02ValueType.sol\":123:127  true */\n  0x01\n    /* \"02ValueType.sol\":103:127  bool public _bool = true */\n  0x00\n  dup1\n  0x0100\n  exp\n  dup2\n  sload\n  dup2\n  0xff\n  mul\n  not\n  and\n  swap1\n  dup4\n  iszero\n  iszero\n  mul\n  or\n  swap1\n  sstore\n  pop\n    /* \"02ValueType.sol\":209:214  _bool */\n  0x00\n  dup1\n  sload\n  swap1\n  0x0100\n  exp\n  swap1\n  div\n  0xff\n  and\n    /* \"02ValueType.sol\":208:214  !_bool */\n  iszero\n    /* \"02ValueType.sol\":187:214  bool public _bool1 = !_bool */\n  0x00\n  exp(0x0100, 0x02)\n  dup2\n  sload\n  dup2\n  0xff\n  mul\n  not\n  and\n  swap1\n  dup4\n  iszero\n  iszero\n  mul\n  or\n  swap1\n  sstore\n  pop\n    /* \"02ValueType.sol\":251:256  _bool */\n  0x00\n  dup1\n  sload\n  swap1\n  0x0100\n  exp\n  swap1\n  div\n  0xff\n  and\n    /* \"02ValueType.sol\":251:266  _bool && _bool1 */\n  dup1\n  iszero\n  tag_1\n  jumpi\n  pop\n    /* \"02ValueType.sol\":260:266  _bool1 */\n  0x00\n  0x02\n  swap1\n  sload\n  swap1\n  0x0100\n  exp\n  swap1\n  div\n  0xff\n  and\n    /* \"02ValueType.sol\":251:266  _bool && _bool1 */\ntag_1:\n    /* \"02ValueType.sol\":230:266  bool public _bool2 = _bool && _bool1 */\n  0x00\n  exp(0x0100, 0x03)\n  dup2\n  sload\n  dup2\n  0xff\n  mul\n  not\n  and\n  swap1\n  dup4\n  iszero\n  iszero\n  mul\n  or\n  swap1\n  sstore\n  pop\n    /* \"02ValueType.sol\":300:305  _bool */\n  0x00\n  dup1\n  sload\n  swap1\n  0x0100\n  exp\n  swap1\n  div\n  0xff\n  and\n    /* \"02ValueType.sol\":300:315  _bool || _bool1 */\n  dup1\n  tag_2\n  jumpi\n  pop\n    /* \"02ValueType.sol\":309:315  _bool1 */\n  0x00\n  0x02\n  swap1\n  sload\n  swap1\n  0x0100\n  exp\n  swap1\n  div\n  0xff\n  and\n    /* \"02ValueType.sol\":300:315  _bool || _bool1 */\ntag_2:\n    /* \"02ValueType.sol\":279:315  bool public _bool3 = _bool || _bool1 */\n  0x00\n  exp(0x0100, 0x04)\n  dup2\n  sload\n  dup2\n  0xff\n  mul\n  not\n  and\n  swap1\n  dup4\n  iszero\n  iszero\n  mul\n  or\n  swap1\n  sstore\n  pop\n    /* \"02ValueType.sol\":358:364  _bool1 */\n  0x00\n  0x02\n  swap1\n  sload\n  swap1\n  0x0100\n  exp\n  swap1\n  div\n  0xff\n  and\n    /* \"02ValueType.sol\":349:364  _bool == _bool1 */\n  iszero\n  iszero\n    /* \"02ValueType.sol\":349:354  _bool */\n  0x00\n  dup1\n  sload\n  swap1\n  0x0100\n  exp\n  swap1\n  div\n  0xff\n  and\n    /* \"02ValueType.sol\":349:364  _bool == _bool1 */\n  iszero\n  iszero\n  eq\n    /* \"02ValueType.sol\":328:364  bool public _bool4 = _bool == _bool1 */\n  0x00\n  exp(0x0100, 0x05)\n  dup2\n  sload\n  dup2\n  0xff\n  mul\n  not\n  and\n  swap1\n  dup4\n  iszero\n  iszero\n  mul\n  or\n  swap1\n  sstore\n  pop\n    /* \"02ValueType.sol\":410:416  _bool1 */\n  0x00\n  0x02\n  swap1\n  sload\n  swap1\n  0x0100\n  exp\n  swap1\n  div\n  0xff\n  and\n    /* \"02ValueType.sol\":401:416  _bool != _bool1 */\n  iszero\n  iszero\n    /* \"02ValueType.sol\":401:406  _bool */\n  0x00\n  dup1\n  sload\n  swap1\n  0x0100\n  exp\n  swap1\n  div\n  0xff\n  and\n    /* \"02ValueType.sol\":401:416  _bool != _bool1 */\n  iszero\n  iszero\n  eq\n  iszero\n    /* \"02ValueType.sol\":380:416  bool public _bool5 = _bool != _bool1 */\n  0x00\n  exp(0x0100, 0x06)\n  dup2\n  sload\n  dup2\n  0xff\n  mul\n  not\n  and\n  swap1\n  dup4\n  iszero\n  iszero\n  mul\n  or\n  swap1\n  sstore\n  pop\n    /* \"02ValueType.sol\":468:470  -1 */\n  0xffffffffffffffffffffffffffffffffffffffffffffffffffffffffffffffff\n    /* \"02ValueType.sol\":450:470  int public _int = -1 */\n  0x01\n  sstore\n    /* \"02ValueType.sol\":523:536  type(int).min */\n  0x8000000000000000000000000000000000000000000000000000000000000000\n    /* \"02ValueType.sol\":502:536  int public _minInt = type(int).min */\n  0x02\n  sstore\n    /* \"02ValueType.sol\":564:577  type(int).max */\n  0x7fffffffffffffffffffffffffffffffffffffffffffffffffffffffffffffff\n    /* \"02ValueType.sol\":543:577  int public _maxInt = type(int).max */\n  0x03\n  sstore\n    /* \"02ValueType.sol\":604:605  1 */\n  0x01\n    /* \"02ValueType.sol\":584:605  uint public _uint = 1 */\n  0x04\n  sstore\n    /* \"02ValueType.sol\":650:658  20220330 */\n  0x013489aa\n    /* \"02ValueType.sol\":625:658  uint256 public _number = 20220330 */\n  0x05\n  sstore\n    /* \"02ValueType.sol\":743:744  1 */\n  0x01\n    /* \"02ValueType.sol\":733:740  _number */\n  sload(0x05)\n    /* \"02ValueType.sol\":733:744  _number + 1 */\n  tag_3\n  swap2\n  swap1\n  tag_4\n  jump\t// in\ntag_3:\n    /* \"02ValueType.sol\":707:744  uint256 public _number1 = _number + 1 */\n  0x06\n  sstore\n    /* \"02ValueType.sol\":794:798  2**2 */\n  0x04\n    /* \"02ValueType.sol\":768:798  uint256 public _number2 = 2**2 */\n  0x07\n  sstore\n    /* \"02ValueType.sol\":841:846  7 % 2 */\n  0x01\n    /* \"02ValueType.sol\":815:846  uint256 public _number3 = 7 % 2 */\n  0x08\n  sstore\n    /* \"02ValueType.sol\":903:911  _number3 */\n  sload(0x08)\n    /* \"02ValueType.sol\":892:900  _number2 */\n  sload(0x07)\n    /* \"02ValueType.sol\":892:911  _number2 > _number3 */\n  gt\n    /* \"02ValueType.sol\":866:911  bool public _numberbool = _number2 > _number3 */\n  0x09\n  exp(0x0100, 0x00)\n  dup2\n  sload\n  dup2\n  0xff\n  mul\n  not\n  and\n  swap1\n  dup4\n  iszero\n  iszero\n  mul\n  or\n  swap1\n  sstore\n  pop\n    /* \"02ValueType.sol\":974:1016  0x7A58c0Be72BE218B41C608b7Fe7C5bB630736C71 */\n  0x7a58c0be72be218b41c608b7fe7c5bb630736c71\n    /* \"02ValueType.sol\":948:1016  address public _address = 0x7A58c0Be72BE218B41C608b7Fe7C5bB630736C71 */\n  0x09\n  exp(0x0100, 0x01)\n  dup2\n  sload\n  dup2\n  0xffffffffffffffffffffffffffffffffffffffff\n  mul\n  not\n  and\n  swap1\n  dup4\n  0xffffffffffffffffffffffffffffffffffffffff\n  and\n  mul\n  or\n  swap1\n  sstore\n  pop\n    /* \"02ValueType.sol\":1066:1074  _address */\n  0x09\n  0x01\n  swap1\n  sload\n  swap1\n  0x0100\n  exp\n  swap1\n  div\n  0xffffffffffffffffffffffffffffffffffffffff\n  and\n    /* \"02ValueType.sol\":1023:1075  address payable public _address1 = payable(_address) */\n  0x0a\n  exp(0x0100, 0x00)\n  dup2\n  sload\n  dup2\n  0xffffffffffffffffffffffffffffffffffffffff\n  mul\n  not\n  and\n  swap1\n  dup4\n  0xffffffffffffffffffffffffffffffffffffffff\n  and\n  mul\n  or\n  swap1\n  sstore\n  pop\n    /* \"02ValueType.sol\":1183:1192  _address1 */\n  0x0a\n  0x00\n  swap1\n  sload\n  swap1\n  0x0100\n  exp\n  swap1\n  div\n  0xffffffffffffffffffffffffffffffffffffffff\n  and\n    /* \"02ValueType.sol\":1183:1200  _address1.balance */\n  0xffffffffffffffffffffffffffffffffffffffff\n  and\n  balance\n    /* \"02ValueType.sol\":1158:1200  uint256 public balance = _address1.balance */\n  0x0b\n  sstore\n    /* \"02ValueType.sol\":1267:1306  bytes32 public _byte32 = \"MiniSolidity\" */\n  sstore(0x0c, 0x4d696e69536f6c69646974790000000000000000000000000000000000000000)\n    /* \"02ValueType.sol\":1336:1343  _byte32 */\n  sload(0x0c)\n    /* \"02ValueType.sol\":1344:1345  0 */\n  0x00\n    /* \"02ValueType.sol\":1336:1346  _byte32[0] */\n  0x20\n  dup2\n  lt\n  tag_5\n  jumpi\n  tag_6\n  tag_7\n  jump\t// in\ntag_6:\ntag_5:\n  byte\n  0xf8\n  shl\n    /* \"02ValueType.sol\":1314:1346  bytes1 public _byte = _byte32[0] */\n  0x0d\n  exp(0x0100, 0x00)\n  dup2\n  sload\n  dup2\n  0xff\n  mul\n  not\n  and\n  swap1\n  dup4\n  0xf8\n  shr\n  mul\n  or\n  swap1\n  sstore\n  pop\n    /* \"02ValueType.sol\":1353:1379  bytes1 public _byte1 = 'i' */\n  0x6900000000000000000000000000000000000000000000000000000000000000\n  0x0d\n  exp(0x0100, 0x01)\n  dup2\n  sload\n  dup2\n  0xff\n  mul\n  not\n  and\n  swap1\n  dup4\n  0xf8\n  shr\n  mul\n  or\n  swap1\n  sstore\n  pop\n    /* \"02ValueType.sol\":1409:1416  _byte32 */\n  sload(0x0c)\n    /* \"02ValueType.sol\":1417:1418  1 */\n  0x01\n    /* \"02ValueType.sol\":1409:1419  _byte32[1] */\n  0x20\n  dup2\n  lt\n  tag_8\n  jumpi\n  tag_9\n  tag_7\n  jump\t// in\ntag_9:\ntag_8:\n  byte\n  0xf8\n  shl\n    /* \"02ValueType.sol\":1386:1419  bytes1 public _byte2 = _byte32[1] */\n  0x0d\n  exp(0x0100, 0x02)\n  dup2\n  sload\n  dup2\n  0xff\n  mul\n  not\n  and\n  swap1\n  dup4\n  0xf8\n  shr\n  mul\n  or\n  swap1\n  sstore\n  pop\n    /* \"02ValueType.sol\":58:1431  contract ValueTypes {... */\n  callvalue\n  dup1\n  iszero\n  tag_10\n  jumpi\n  0x00\n  dup1\n  revert\ntag_10:\n  pop\n  jump(tag_11)\n    /* \"#utility.yul\":7:84   */\ntag_12:\n    /* \"#utility.yul\":44:51   */\n  0x00\n    /* \"#utility.yul\":73:78   */\n  dup2\n    /* \"#utility.yul\":62:78   */\n  swap1\n  pop\n    /* \"#utility.yul\":7:84   */\n  swap2\n  swap1\n  pop\n  jump\t// out\n    /* \"#utility.yul\":90:270   */\ntag_13:\n    /* \"#utility.yul\":138:215   */\n  0x4e487b7100000000000000000000000000000000000000000000000000000000\n    /* \"#utility.yul\":135:136   */\n  0x00\n    /* \"#utility.yul\":128:216   */\n  mstore\n    /* \"#utility.yul\":235:239   */\n  0x11\n    /* \"#utility.yul\":232:233   */\n  0x04\n    /* \"#utility.yul\":225:240   */\n  mstore\n    /* \"#utility.yul\":259:263   */\n  0x24\n    /* \"#utility.yul\":256:257   */\n  0x00\n    /* \"#utility.yul\":249:264   */\n  revert\n    /* \"#utility.yul\":276:467   */\ntag_4:\n    /* \"#utility.yul\":316:319   */\n  0x00\n    /* \"#utility.yul\":335:355   */\n  tag_18\n    /* \"#utility.yul\":353:354   */\n  dup3\n    /* \"#utility.yul\":335:355   */\n  tag_12\n  jump\t// in\ntag_18:\n    /* \"#utility.yul\":330:355   */\n  swap2\n  pop\n    /* \"#utility.yul\":369:389   */\n  tag_19\n    /* \"#utility.yul\":387:388   */\n  dup4\n    /* \"#utility.yul\":369:389   */\n  tag_12\n  jump\t// in\ntag_19:\n    /* \"#utility.yul\":364:389   */\n  swap3\n  pop\n    /* \"#utility.yul\":412:413   */\n  dup3\n    /* \"#utility.yul\":409:410   */\n  dup3\n    /* \"#utility.yul\":405:414   */\n  add\n    /* \"#utility.yul\":398:414   */\n  swap1\n  pop\n    /* \"#utility.yul\":433:436   */\n  dup1\n    /* \"#utility.yul\":430:431   */\n  dup3\n    /* \"#utility.yul\":427:437   */\n  gt\n    /* \"#utility.yul\":424:460   */\n  iszero\n  tag_20\n  jumpi\n    /* \"#utility.yul\":440:458   */\n  tag_21\n  tag_13\n  jump\t// in\ntag_21:\n    /* \"#utility.yul\":424:460   */\ntag_20:\n    /* \"#utility.yul\":276:467   */\n  swap3\n  swap2\n  pop\n  pop\n  jump\t// out\n    /* \"#utility.yul\":473:653   */\ntag_7:\n    /* \"#utility.yul\":521:598   */\n  0x4e487b7100000000000000000000000000000000000000000000000000000000\n    /* \"#utility.yul\":518:519   */\n  0x00\n    /* \"#utility.yul\":511:599   */\n  mstore\n    /* \"#utility.yul\":618:622   */\n  0x32\n    /* \"#utility.yul\":615:616   */\n  0x04\n    /* \"#utility.yul\":608:623   */\n  mstore\n    /* \"#utility.yul\":642:646   */\n  0x24\n    /* \"#utility.yul\":639:640   */\n  0x00\n    /* \"#utility.yul\":632:647   */\n  revert\n    /* \"02ValueType.sol\":58:1431  contract ValueTypes {... */\ntag_11:\n  dataSize(sub_0)\n  dup1\n  dataOffset(sub_0)\n  0x00\n  codecopy\n  0x00\n  return\nstop\n\nsub_0: assembly {\n        /* \"02ValueType.sol\":58:1431  contract ValueTypes {... */\n      mstore(0x40, 0x80)\n      callvalue\n      dup1\n      iszero\n      tag_1\n      jumpi\n      0x00\n      dup1\n      revert\n    tag_1:\n      pop\n      jumpi(tag_2, lt(calldatasize, 0x04))\n      shr(0xe0, calldataload(0x00))\n      dup1\n      0x9e6ba9c2\n      gt\n      tag_26\n      jumpi\n      dup1\n      0xb69ef8a8\n      gt\n      tag_27\n      jumpi\n      dup1\n      0xb69ef8a8\n      eq\n      tag_20\n      jumpi\n      dup1\n      0xb78cab65\n      eq\n      tag_21\n      jumpi\n      dup1\n      0xb7c19e3f\n      eq\n      tag_22\n      jumpi\n      dup1\n      0xe37c6c82\n      eq\n      tag_23\n      jumpi\n      dup1\n      0xeac23280\n      eq\n      tag_24\n      jumpi\n      dup1\n      0xf9bd55cc\n      eq\n      tag_25\n      jumpi\n      jump(tag_2)\n    tag_27:\n      dup1\n      0x9e6ba9c2\n      eq\n      tag_14\n      jumpi\n      dup1\n      0xa2e7fe8a\n      eq\n      tag_15\n      jumpi\n      dup1\n      0xaa994926\n      eq\n      tag_16\n      jumpi\n      dup1\n      0xac729403\n      eq\n      tag_17\n      jumpi\n      dup1\n      0xaeb6f292\n      eq\n      tag_18\n      jumpi\n      dup1\n      0xaf45869e\n      eq\n      tag_19\n      jumpi\n      jump(tag_2)\n    tag_26:\n      dup1\n      0x2b36a762\n      gt\n      tag_28\n      jumpi\n      dup1\n      0x2b36a762\n      eq\n      tag_8\n      jumpi\n      dup1\n      0x2f3cc525\n      eq\n      tag_9\n      jumpi\n      dup1\n      0x3f346102\n      eq\n      tag_10\n      jumpi\n      dup1\n      0x6b1d2c4e\n      eq\n      tag_11\n      jumpi\n      dup1\n      0x6e8d0c9e\n      eq\n      tag_12\n      jumpi\n      dup1\n      0x924b3d21\n      eq\n      tag_13\n      jumpi\n      jump(tag_2)\n    tag_28:\n      dup1\n      0x0aab8220\n      eq\n      tag_3\n      jumpi\n      dup1\n      0x18bad217\n      eq\n      tag_4\n      jumpi\n      dup1\n      0x19bff7df\n      eq\n      tag_5\n      jumpi\n      dup1\n      0x1db19d8c\n      eq\n      tag_6\n      jumpi\n      dup1\n      0x2543135b\n      eq\n      tag_7\n      jumpi\n    tag_2:\n      0x00\n      dup1\n      revert\n        /* \"02ValueType.sol\":543:577  int public _maxInt = type(int).max */\n    tag_3:\n      tag_29\n      tag_30\n      jump\t// in\n    tag_29:\n      mload(0x40)\n      tag_31\n      swap2\n      swap1\n      tag_32\n      jump\t// in\n    tag_31:\n      mload(0x40)\n      dup1\n      swap2\n      sub\n      swap1\n      return\n        /* \"02ValueType.sol\":948:1016  address public _address = 0x7A58c0Be72BE218B41C608b7Fe7C5bB630736C71 */\n    tag_4:\n      tag_33\n      tag_34\n      jump\t// in\n    tag_33:\n      mload(0x40)\n      tag_35\n      swap2\n      swap1\n      tag_36\n      jump\t// in\n    tag_35:\n      mload(0x40)\n      dup1\n      swap2\n      sub\n      swap1\n      return\n        /* \"02ValueType.sol\":815:846  uint256 public _number3 = 7 % 2 */\n    tag_5:\n      tag_37\n      tag_38\n      jump\t// in\n    tag_37:\n      mload(0x40)\n      tag_39\n      swap2\n      swap1\n      tag_40\n      jump\t// in\n    tag_39:\n      mload(0x40)\n      dup1\n      swap2\n      sub\n      swap1\n      return\n        /* \"02ValueType.sol\":380:416  bool public _bool5 = _bool != _bool1 */\n    tag_6:\n      tag_41\n      tag_42\n      jump\t// in\n    tag_41:\n      mload(0x40)\n      tag_43\n      swap2\n      swap1\n      tag_44\n      jump\t// in\n    tag_43:\n      mload(0x40)\n      dup1\n      swap2\n      sub\n      swap1\n      return\n        /* \"02ValueType.sol\":584:605  uint public _uint = 1 */\n    tag_7:\n      tag_45\n      tag_46\n      jump\t// in\n    tag_45:\n      mload(0x40)\n      tag_47\n      swap2\n      swap1\n      tag_40\n      jump\t// in\n    tag_47:\n      mload(0x40)\n      dup1\n      swap2\n      sub\n      swap1\n      return\n        /* \"02ValueType.sol\":328:364  bool public _bool4 = _bool == _bool1 */\n    tag_8:\n      tag_48\n      tag_49\n      jump\t// in\n    tag_48:\n      mload(0x40)\n      tag_50\n      swap2\n      swap1\n      tag_44\n      jump\t// in\n    tag_50:\n      mload(0x40)\n      dup1\n      swap2\n      sub\n      swap1\n      return\n        /* \"02ValueType.sol\":502:536  int public _minInt = type(int).min */\n    tag_9:\n      tag_51\n      tag_52\n      jump\t// in\n    tag_51:\n      mload(0x40)\n      tag_53\n      swap2\n      swap1\n      tag_32\n      jump\t// in\n    tag_53:\n      mload(0x40)\n      dup1\n      swap2\n      sub\n      swap1\n      return\n        /* \"02ValueType.sol\":1267:1306  bytes32 public _byte32 = \"MiniSolidity\" */\n    tag_10:\n      tag_54\n      tag_55\n      jump\t// in\n    tag_54:\n      mload(0x40)\n      tag_56\n      swap2\n      swap1\n      tag_57\n      jump\t// in\n    tag_56:\n      mload(0x40)\n      dup1\n      swap2\n      sub\n      swap1\n      return\n        /* \"02ValueType.sol\":768:798  uint256 public _number2 = 2**2 */\n    tag_11:\n      tag_58\n      tag_59\n      jump\t// in\n    tag_58:\n      mload(0x40)\n      tag_60\n      swap2\n      swap1\n      tag_40\n      jump\t// in\n    tag_60:\n      mload(0x40)\n      dup1\n      swap2\n      sub\n      swap1\n      return\n        /* \"02ValueType.sol\":707:744  uint256 public _number1 = _number + 1 */\n    tag_12:\n      tag_61\n      tag_62\n      jump\t// in\n    tag_61:\n      mload(0x40)\n      tag_63\n      swap2\n      swap1\n      tag_40\n      jump\t// in\n    tag_63:\n      mload(0x40)\n      dup1\n      swap2\n      sub\n      swap1\n      return\n        /* \"02ValueType.sol\":187:214  bool public _bool1 = !_bool */\n    tag_13:\n      tag_64\n      tag_65\n      jump\t// in\n    tag_64:\n      mload(0x40)\n      tag_66\n      swap2\n      swap1\n      tag_44\n      jump\t// in\n    tag_66:\n      mload(0x40)\n      dup1\n      swap2\n      sub\n      swap1\n      return\n        /* \"02ValueType.sol\":103:127  bool public _bool = true */\n    tag_14:\n      tag_67\n      tag_68\n      jump\t// in\n    tag_67:\n      mload(0x40)\n      tag_69\n      swap2\n      swap1\n      tag_44\n      jump\t// in\n    tag_69:\n      mload(0x40)\n      dup1\n      swap2\n      sub\n      swap1\n      return\n        /* \"02ValueType.sol\":230:266  bool public _bool2 = _bool && _bool1 */\n    tag_15:\n      tag_70\n      tag_71\n      jump\t// in\n    tag_70:\n      mload(0x40)\n      tag_72\n      swap2\n      swap1\n      tag_44\n      jump\t// in\n    tag_72:\n      mload(0x40)\n      dup1\n      swap2\n      sub\n      swap1\n      return\n        /* \"02ValueType.sol\":279:315  bool public _bool3 = _bool || _bool1 */\n    tag_16:\n      tag_73\n      tag_74\n      jump\t// in\n    tag_73:\n      mload(0x40)\n      tag_75\n      swap2\n      swap1\n      tag_44\n      jump\t// in\n    tag_75:\n      mload(0x40)\n      dup1\n      swap2\n      sub\n      swap1\n      return\n        /* \"02ValueType.sol\":1023:1075  address payable public _address1 = payable(_address) */\n    tag_17:\n      tag_76\n      tag_77\n      jump\t// in\n    tag_76:\n      mload(0x40)\n      tag_78\n      swap2\n      swap1\n      tag_79\n      jump\t// in\n    tag_78:\n      mload(0x40)\n      dup1\n      swap2\n      sub\n      swap1\n      return\n        /* \"02ValueType.sol\":1314:1346  bytes1 public _byte = _byte32[0] */\n    tag_18:\n      tag_80\n      tag_81\n      jump\t// in\n    tag_80:\n      mload(0x40)\n      tag_82\n      swap2\n      swap1\n      tag_83\n      jump\t// in\n    tag_82:\n      mload(0x40)\n      dup1\n      swap2\n      sub\n      swap1\n      return\n        /* \"02ValueType.sol\":450:470  int public _int = -1 */\n    tag_19:\n      tag_84\n      tag_85\n      jump\t// in\n    tag_84:\n      mload(0x40)\n      tag_86\n      swap2\n      swap1\n      tag_32\n      jump\t// in\n    tag_86:\n      mload(0x40)\n      dup1\n      swap2\n      sub\n      swap1\n      return\n        /* \"02ValueType.sol\":1158:1200  uint256 public balance = _address1.balance */\n    tag_20:\n      tag_87\n      tag_88\n      jump\t// in\n    tag_87:\n      mload(0x40)\n      tag_89\n      swap2\n      swap1\n      tag_40\n      jump\t// in\n    tag_89:\n      mload(0x40)\n      dup1\n      swap2\n      sub\n      swap1\n      return\n        /* \"02ValueType.sol\":1386:1419  bytes1 public _byte2 = _byte32[1] */\n    tag_21:\n      tag_90\n      tag_91\n      jump\t// in\n    tag_90:\n      mload(0x40)\n      tag_92\n      swap2\n      swap1\n      tag_83\n      jump\t// in\n    tag_92:\n      mload(0x40)\n      dup1\n      swap2\n      sub\n      swap1\n      return\n        /* \"02ValueType.sol\":134:159  bool public _default_bool */\n    tag_22:\n      tag_93\n      tag_94\n      jump\t// in\n    tag_93:\n      mload(0x40)\n      tag_95\n      swap2\n      swap1\n      tag_44\n      jump\t// in\n    tag_95:\n      mload(0x40)\n      dup1\n      swap2\n      sub\n      swap1\n      return\n        /* \"02ValueType.sol\":866:911  bool public _numberbool = _number2 > _number3 */\n    tag_23:\n      tag_96\n      tag_97\n      jump\t// in\n    tag_96:\n      mload(0x40)\n      tag_98\n      swap2\n      swap1\n      tag_44\n      jump\t// in\n    tag_98:\n      mload(0x40)\n      dup1\n      swap2\n      sub\n      swap1\n      return\n        /* \"02ValueType.sol\":1353:1379  bytes1 public _byte1 = 'i' */\n    tag_24:\n      tag_99\n      tag_100\n      jump\t// in\n    tag_99:\n      mload(0x40)\n      tag_101\n      swap2\n      swap1\n      tag_83\n      jump\t// in\n    tag_101:\n      mload(0x40)\n      dup1\n      swap2\n      sub\n      swap1\n      return\n        /* \"02ValueType.sol\":625:658  uint256 public _number = 20220330 */\n    tag_25:\n      tag_102\n      tag_103\n      jump\t// in\n    tag_102:\n      mload(0x40)\n      tag_104\n      swap2\n      swap1\n      tag_40\n      jump\t// in\n    tag_104:\n      mload(0x40)\n      dup1\n      swap2\n      sub\n      swap1\n      return\n        /* \"02ValueType.sol\":543:577  int public _maxInt = type(int).max */\n    tag_30:\n      sload(0x03)\n      dup2\n      jump\t// out\n        /* \"02ValueType.sol\":948:1016  address public _address = 0x7A58c0Be72BE218B41C608b7Fe7C5bB630736C71 */\n    tag_34:\n      0x09\n      0x01\n      swap1\n      sload\n      swap1\n      0x0100\n      exp\n      swap1\n      div\n      0xffffffffffffffffffffffffffffffffffffffff\n      and\n      dup2\n      jump\t// out\n        /* \"02ValueType.sol\":815:846  uint256 public _number3 = 7 % 2 */\n    tag_38:\n      sload(0x08)\n      dup2\n      jump\t// out\n        /* \"02ValueType.sol\":380:416  bool public _bool5 = _bool != _bool1 */\n    tag_42:\n      0x00\n      0x06\n      swap1\n      sload\n      swap1\n      0x0100\n      exp\n      swap1\n      div\n      0xff\n      and\n      dup2\n      jump\t// out\n        /* \"02ValueType.sol\":584:605  uint public _uint = 1 */\n    tag_46:\n      sload(0x04)\n      dup2\n      jump\t// out\n        /* \"02ValueType.sol\":328:364  bool public _bool4 = _bool == _bool1 */\n    tag_49:\n      0x00\n      0x05\n      swap1\n      sload\n      swap1\n      0x0100\n      exp\n      swap1\n      div\n      0xff\n      and\n      dup2\n      jump\t// out\n        /* \"02ValueType.sol\":502:536  int public _minInt = type(int).min */\n    tag_52:\n      sload(0x02)\n      dup2\n      jump\t// out\n        /* \"02ValueType.sol\":1267:1306  bytes32 public _byte32 = \"MiniSolidity\" */\n    tag_55:\n      sload(0x0c)\n      dup2\n      jump\t// out\n        /* \"02ValueType.sol\":768:798  uint256 public _number2 = 2**2 */\n    tag_59:\n      sload(0x07)\n      dup2\n      jump\t// out\n        /* \"02ValueType.sol\":707:744  uint256 public _number1 = _number + 1 */\n    tag_62:\n      sload(0x06)\n      dup2\n      jump\t// out\n        /* \"02ValueType.sol\":187:214  bool public _bool1 = !_bool */\n    tag_65:\n      0x00\n      0x02\n      swap1\n      sload\n      swap1\n      0x0100\n      exp\n      swap1\n      div\n      0xff\n      and\n      dup2\n      jump\t// out\n        /* \"02ValueType.sol\":103:127  bool public _bool = true */\n    tag_68:\n      0x00\n      dup1\n      sload\n      swap1\n      0x0100\n      exp\n      swap1\n      div\n      0xff\n      and\n      dup2\n      jump\t// out\n        /* \"02ValueType.sol\":230:266  bool public _bool2 = _bool && _bool1 */\n    tag_71:\n      0x00\n      0x03\n      swap1\n      sload\n      swap1\n      0x0100\n      exp\n      swap1\n      div\n      0xff\n      and\n      dup2\n      jump\t// out\n        /* \"02ValueType.sol\":279:315  bool public _bool3 = _bool || _bool1 */\n    tag_74:\n      0x00\n      0x04\n      swap1\n      sload\n      swap1\n      0x0100\n      exp\n      swap1\n      div\n      0xff\n      and\n      dup2\n      jump\t// out\n        /* \"02ValueType.sol\":1023:1075  address payable public _address1 = payable(_address) */\n    tag_77:\n      0x0a\n      0x00\n      swap1\n      sload\n      swap1\n      0x0100\n      exp\n      swap1\n      div\n      0xffffffffffffffffffffffffffffffffffffffff\n      and\n      dup2\n      jump\t// out\n        /* \"02ValueType.sol\":1314:1346  bytes1 public _byte = _byte32[0] */\n    tag_81:\n      0x0d\n      0x00\n      swap1\n      sload\n      swap1\n      0x0100\n      exp\n      swap1\n      div\n      0xf8\n      shl\n      dup2\n      jump\t// out\n        /* \"02ValueType.sol\":450:470  int public _int = -1 */\n    tag_85:\n      sload(0x01)\n      dup2\n      jump\t// out\n        /* \"02ValueType.sol\":1158:1200  uint256 public balance = _address1.balance */\n    tag_88:\n      sload(0x0b)\n      dup2\n      jump\t// out\n        /* \"02ValueType.sol\":1386:1419  bytes1 public _byte2 = _byte32[1] */\n    tag_91:\n      0x0d\n      0x02\n      swap1\n      sload\n      swap1\n      0x0100\n      exp\n      swap1\n      div\n      0xf8\n      shl\n      dup2\n      jump\t// out\n        /* \"02ValueType.sol\":134:159  bool public _default_bool */\n    tag_94:\n      0x00\n      0x01\n      swap1\n      sload\n      swap1\n      0x0100\n      exp\n      swap1\n      div\n      0xff\n      and\n      dup2\n      jump\t// out\n        /* \"02ValueType.sol\":866:911  bool public _numberbool = _number2 > _number3 */\n    tag_97:\n      0x09\n      0x00\n      swap1\n      sload\n      swap1\n      0x0100\n      exp\n      swap1\n      div\n      0xff\n      and\n      dup2\n      jump\t// out\n        /* \"02ValueType.sol\":1353:1379  bytes1 public _byte1 = 'i' */\n    tag_100:\n      0x0d\n      0x01\n      swap1\n      sload\n      swap1\n      0x0100\n      exp\n      swap1\n      div\n      0xf8\n      shl\n      dup2\n      jump\t// out\n        /* \"02ValueType.sol\":625:658  uint256 public _number = 20220330 */\n    tag_103:\n      sload(0x05)\n      dup2\n      jump\t// out\n        /* \"#utility.yul\":7:83   */\n    tag_105:\n        /* \"#utility.yul\":43:50   */\n      0x00\n        /* \"#utility.yul\":72:77   */\n      dup2\n        /* \"#utility.yul\":61:77   */\n      swap1\n      pop\n        /* \"#utility.yul\":7:83   */\n      swap2\n      swap1\n      pop\n      jump\t// out\n        /* \"#utility.yul\":89:204   */\n    tag_106:\n        /* \"#utility.yul\":174:197   */\n      tag_123\n        /* \"#utility.yul\":191:196   */\n      dup2\n        /* \"#utility.yul\":174:197   */\n      tag_105\n      jump\t// in\n    tag_123:\n        /* \"#utility.yul\":169:172   */\n      dup3\n        /* \"#utility.yul\":162:198   */\n      mstore\n        /* \"#utility.yul\":89:204   */\n      pop\n      pop\n      jump\t// out\n        /* \"#utility.yul\":210:428   */\n    tag_32:\n        /* \"#utility.yul\":301:305   */\n      0x00\n        /* \"#utility.yul\":339:341   */\n      0x20\n        /* \"#utility.yul\":328:337   */\n      dup3\n        /* \"#utility.yul\":324:342   */\n      add\n        /* \"#utility.yul\":316:342   */\n      swap1\n      pop\n        /* \"#utility.yul\":352:421   */\n      tag_125\n        /* \"#utility.yul\":418:419   */\n      0x00\n        /* \"#utility.yul\":407:416   */\n      dup4\n        /* \"#utility.yul\":403:420   */\n      add\n        /* \"#utility.yul\":394:400   */\n      dup5\n        /* \"#utility.yul\":352:421   */\n      tag_106\n      jump\t// in\n    tag_125:\n        /* \"#utility.yul\":210:428   */\n      swap3\n      swap2\n      pop\n      pop\n      jump\t// out\n        /* \"#utility.yul\":434:560   */\n    tag_107:\n        /* \"#utility.yul\":471:478   */\n      0x00\n        /* \"#utility.yul\":511:553   */\n      0xffffffffffffffffffffffffffffffffffffffff\n        /* \"#utility.yul\":504:509   */\n      dup3\n        /* \"#utility.yul\":500:554   */\n      and\n        /* \"#utility.yul\":489:554   */\n      swap1\n      pop\n        /* \"#utility.yul\":434:560   */\n      swap2\n      swap1\n      pop\n      jump\t// out\n        /* \"#utility.yul\":566:662   */\n    tag_108:\n        /* \"#utility.yul\":603:610   */\n      0x00\n        /* \"#utility.yul\":632:656   */\n      tag_128\n        /* \"#utility.yul\":650:655   */\n      dup3\n        /* \"#utility.yul\":632:656   */\n      tag_107\n      jump\t// in\n    tag_128:\n        /* \"#utility.yul\":621:656   */\n      swap1\n      pop\n        /* \"#utility.yul\":566:662   */\n      swap2\n      swap1\n      pop\n      jump\t// out\n        /* \"#utility.yul\":668:786   */\n    tag_109:\n        /* \"#utility.yul\":755:779   */\n      tag_130\n        /* \"#utility.yul\":773:778   */\n      dup2\n        /* \"#utility.yul\":755:779   */\n      tag_108\n      jump\t// in\n    tag_130:\n        /* \"#utility.yul\":750:753   */\n      dup3\n        /* \"#utility.yul\":743:780   */\n      mstore\n        /* \"#utility.yul\":668:786   */\n      pop\n      pop\n      jump\t// out\n        /* \"#utility.yul\":792:1014   */\n    tag_36:\n        /* \"#utility.yul\":885:889   */\n      0x00\n        /* \"#utility.yul\":923:925   */\n      0x20\n        /* \"#utility.yul\":912:921   */\n      dup3\n        /* \"#utility.yul\":908:926   */\n      add\n        /* \"#utility.yul\":900:926   */\n      swap1\n      pop\n        /* \"#utility.yul\":936:1007   */\n      tag_132\n        /* \"#utility.yul\":1004:1005   */\n      0x00\n        /* \"#utility.yul\":993:1002   */\n      dup4\n        /* \"#utility.yul\":989:1006   */\n      add\n        /* \"#utility.yul\":980:986   */\n      dup5\n        /* \"#utility.yul\":936:1007   */\n      tag_109\n      jump\t// in\n    tag_132:\n        /* \"#utility.yul\":792:1014   */\n      swap3\n      swap2\n      pop\n      pop\n      jump\t// out\n        /* \"#utility.yul\":1020:1097   */\n    tag_110:\n        /* \"#utility.yul\":1057:1064   */\n      0x00\n        /* \"#utility.yul\":1086:1091   */\n      dup2\n        /* \"#utility.yul\":1075:1091   */\n      swap1\n      pop\n        /* \"#utility.yul\":1020:1097   */\n      swap2\n      swap1\n      pop\n      jump\t// out\n        /* \"#utility.yul\":1103:1221   */\n    tag_111:\n        /* \"#utility.yul\":1190:1214   */\n      tag_135\n        /* \"#utility.yul\":1208:1213   */\n      dup2\n        /* \"#utility.yul\":1190:1214   */\n      tag_110\n      jump\t// in\n    tag_135:\n        /* \"#utility.yul\":1185:1188   */\n      dup3\n        /* \"#utility.yul\":1178:1215   */\n      mstore\n        /* \"#utility.yul\":1103:1221   */\n      pop\n      pop\n      jump\t// out\n        /* \"#utility.yul\":1227:1449   */\n    tag_40:\n        /* \"#utility.yul\":1320:1324   */\n      0x00\n        /* \"#utility.yul\":1358:1360   */\n      0x20\n        /* \"#utility.yul\":1347:1356   */\n      dup3\n        /* \"#utility.yul\":1343:1361   */\n      add\n        /* \"#utility.yul\":1335:1361   */\n      swap1\n      pop\n        /* \"#utility.yul\":1371:1442   */\n      tag_137\n        /* \"#utility.yul\":1439:1440   */\n      0x00\n        /* \"#utility.yul\":1428:1437   */\n      dup4\n        /* \"#utility.yul\":1424:1441   */\n      add\n        /* \"#utility.yul\":1415:1421   */\n      dup5\n        /* \"#utility.yul\":1371:1442   */\n      tag_111\n      jump\t// in\n    tag_137:\n        /* \"#utility.yul\":1227:1449   */\n      swap3\n      swap2\n      pop\n      pop\n      jump\t// out\n        /* \"#utility.yul\":1455:1545   */\n    tag_112:\n        /* \"#utility.yul\":1489:1496   */\n      0x00\n        /* \"#utility.yul\":1532:1537   */\n      dup2\n        /* \"#utility.yul\":1525:1538   */\n      iszero\n        /* \"#utility.yul\":1518:1539   */\n      iszero\n        /* \"#utility.yul\":1507:1539   */\n      swap1\n      pop\n        /* \"#utility.yul\":1455:1545   */\n      swap2\n      swap1\n      pop\n      jump\t// out\n        /* \"#utility.yul\":1551:1660   */\n    tag_113:\n        /* \"#utility.yul\":1632:1653   */\n      tag_140\n        /* \"#utility.yul\":1647:1652   */\n      dup2\n        /* \"#utility.yul\":1632:1653   */\n      tag_112\n      jump\t// in\n    tag_140:\n        /* \"#utility.yul\":1627:1630   */\n      dup3\n        /* \"#utility.yul\":1620:1654   */\n      mstore\n        /* \"#utility.yul\":1551:1660   */\n      pop\n      pop\n      jump\t// out\n        /* \"#utility.yul\":1666:1876   */\n    tag_44:\n        /* \"#utility.yul\":1753:1757   */\n      0x00\n        /* \"#utility.yul\":1791:1793   */\n      0x20\n        /* \"#utility.yul\":1780:1789   */\n      dup3\n        /* \"#utility.yul\":1776:1794   */\n      add\n        /* \"#utility.yul\":1768:1794   */\n      swap1\n      pop\n        /* \"#utility.yul\":1804:1869   */\n      tag_142\n        /* \"#utility.yul\":1866:1867   */\n      0x00\n        /* \"#utility.yul\":1855:1864   */\n      dup4\n        /* \"#utility.yul\":1851:1868   */\n      add\n        /* \"#utility.yul\":1842:1848   */\n      dup5\n        /* \"#utility.yul\":1804:1869   */\n      tag_113\n      jump\t// in\n    tag_142:\n        /* \"#utility.yul\":1666:1876   */\n      swap3\n      swap2\n      pop\n      pop\n      jump\t// out\n        /* \"#utility.yul\":1882:1959   */\n    tag_114:\n        /* \"#utility.yul\":1919:1926   */\n      0x00\n        /* \"#utility.yul\":1948:1953   */\n      dup2\n        /* \"#utility.yul\":1937:1953   */\n      swap1\n      pop\n        /* \"#utility.yul\":1882:1959   */\n      swap2\n      swap1\n      pop\n      jump\t// out\n        /* \"#utility.yul\":1965:2083   */\n    tag_115:\n        /* \"#utility.yul\":2052:2076   */\n      tag_145\n        /* \"#utility.yul\":2070:2075   */\n      dup2\n        /* \"#utility.yul\":2052:2076   */\n      tag_114\n      jump\t// in\n    tag_145:\n        /* \"#utility.yul\":2047:2050   */\n      dup3\n        /* \"#utility.yul\":2040:2077   */\n      mstore\n        /* \"#utility.yul\":1965:2083   */\n      pop\n      pop\n      jump\t// out\n        /* \"#utility.yul\":2089:2311   */\n    tag_57:\n        /* \"#utility.yul\":2182:2186   */\n      0x00\n        /* \"#utility.yul\":2220:2222   */\n      0x20\n        /* \"#utility.yul\":2209:2218   */\n      dup3\n        /* \"#utility.yul\":2205:2223   */\n      add\n        /* \"#utility.yul\":2197:2223   */\n      swap1\n      pop\n        /* \"#utility.yul\":2233:2304   */\n      tag_147\n        /* \"#utility.yul\":2301:2302   */\n      0x00\n        /* \"#utility.yul\":2290:2299   */\n      dup4\n        /* \"#utility.yul\":2286:2303   */\n      add\n        /* \"#utility.yul\":2277:2283   */\n      dup5\n        /* \"#utility.yul\":2233:2304   */\n      tag_115\n      jump\t// in\n    tag_147:\n        /* \"#utility.yul\":2089:2311   */\n      swap3\n      swap2\n      pop\n      pop\n      jump\t// out\n        /* \"#utility.yul\":2317:2421   */\n    tag_116:\n        /* \"#utility.yul\":2362:2369   */\n      0x00\n        /* \"#utility.yul\":2391:2415   */\n      tag_149\n        /* \"#utility.yul\":2409:2414   */\n      dup3\n        /* \"#utility.yul\":2391:2415   */\n      tag_107\n      jump\t// in\n    tag_149:\n        /* \"#utility.yul\":2380:2415   */\n      swap1\n      pop\n        /* \"#utility.yul\":2317:2421   */\n      swap2\n      swap1\n      pop\n      jump\t// out\n        /* \"#utility.yul\":2427:2569   */\n    tag_117:\n        /* \"#utility.yul\":2530:2562   */\n      tag_151\n        /* \"#utility.yul\":2556:2561   */\n      dup2\n        /* \"#utility.yul\":2530:2562   */\n      tag_116\n      jump\t// in\n    tag_151:\n        /* \"#utility.yul\":2525:2528   */\n      dup3\n        /* \"#utility.yul\":2518:2563   */\n      mstore\n        /* \"#utility.yul\":2427:2569   */\n      pop\n      pop\n      jump\t// out\n        /* \"#utility.yul\":2575:2829   */\n    tag_79:\n        /* \"#utility.yul\":2684:2688   */\n      0x00\n        /* \"#utility.yul\":2722:2724   */\n      0x20\n        /* \"#utility.yul\":2711:2720   */\n      dup3\n        /* \"#utility.yul\":2707:2725   */\n      add\n        /* \"#utility.yul\":2699:2725   */\n      swap1\n      pop\n        /* \"#utility.yul\":2735:2822   */\n      tag_153\n        /* \"#utility.yul\":2819:2820   */\n      0x00\n        /* \"#utility.yul\":2808:2817   */\n      dup4\n        /* \"#utility.yul\":2804:2821   */\n      add\n        /* \"#utility.yul\":2795:2801   */\n      dup5\n        /* \"#utility.yul\":2735:2822   */\n      tag_117\n      jump\t// in\n    tag_153:\n        /* \"#utility.yul\":2575:2829   */\n      swap3\n      swap2\n      pop\n      pop\n      jump\t// out\n        /* \"#utility.yul\":2835:2984   */\n    tag_118:\n        /* \"#utility.yul\":2871:2878   */\n      0x00\n        /* \"#utility.yul\":2911:2977   */\n      0xff00000000000000000000000000000000000000000000000000000000000000\n        /* \"#utility.yul\":2904:2909   */\n      dup3\n        /* \"#utility.yul\":2900:2978   */\n      and\n        /* \"#utility.yul\":2889:2978   */\n      swap1\n      pop\n        /* \"#utility.yul\":2835:2984   */\n      swap2\n      swap1\n      pop\n      jump\t// out\n        /* \"#utility.yul\":2990:3105   */\n    tag_119:\n        /* \"#utility.yul\":3075:3098   */\n      tag_156\n        /* \"#utility.yul\":3092:3097   */\n      dup2\n        /* \"#utility.yul\":3075:3098   */\n      tag_118\n      jump\t// in\n    tag_156:\n        /* \"#utility.yul\":3070:3073   */\n      dup3\n        /* \"#utility.yul\":3063:3099   */\n      mstore\n        /* \"#utility.yul\":2990:3105   */\n      pop\n      pop\n      jump\t// out\n        /* \"#utility.yul\":3111:3329   */\n    tag_83:\n        /* \"#utility.yul\":3202:3206   */\n      0x00\n        /* \"#utility.yul\":3240:3242   */\n      0x20\n        /* \"#utility.yul\":3229:3238   */\n      dup3\n        /* \"#utility.yul\":3225:3243   */\n      add\n        /* \"#utility.yul\":3217:3243   */\n      swap1\n      pop\n        /* \"#utility.yul\":3253:3322   */\n      tag_158\n        /* \"#utility.yul\":3319:3320   */\n      0x00\n        /* \"#utility.yul\":3308:3317   */\n      dup4\n        /* \"#utility.yul\":3304:3321   */\n      add\n        /* \"#utility.yul\":3295:3301   */\n      dup5\n        /* \"#utility.yul\":3253:3322   */\n      tag_119\n      jump\t// in\n    tag_158:\n        /* \"#utility.yul\":3111:3329   */\n      swap3\n      swap2\n      pop\n      pop\n      jump\t// out\n\n    auxdata: 0xa2646970667358221220a714f2b37210d93d3d32715531df95554789687cf7713032945be2e3126114e064736f6c63430008190033\n}\n",
				"bytecode": {
					"linkReferences": {},
					"object": "608060405260015f806101000a81548160ff0219169083151502179055505f8054906101000a900460ff16155f60026101000a81548160ff0219169083151502179055505f8054906101000a900460ff16801561006757505f60029054906101000a900460ff165b5f60036101000a81548160ff0219169083151502179055505f8054906101000a900460ff16806100a257505f60029054906101000a900460ff165b5f60046101000a81548160ff0219169083151502179055505f60029054906101000a900460ff1615155f8054906101000a900460ff161515145f60056101000a81548160ff0219169083151502179055505f60029054906101000a900460ff1615155f8054906101000a900460ff16151514155f60066101000a81548160ff0219169083151502179055507fffffffffffffffffffffffffffffffffffffffffffffffffffffffffffffffff6001557f80000000000000000000000000000000000000000000000000000000000000006002557f7fffffffffffffffffffffffffffffffffffffffffffffffffffffffffffffff600355600160045563013489aa60055560016005546101b591906103e0565b600655600460075560016008556008546007541160095f6101000a81548160ff021916908315150217905550737a58c0be72be218b41c608b7fe7c5bb630736c71600960016101000a81548173ffffffffffffffffffffffffffffffffffffffff021916908373ffffffffffffffffffffffffffffffffffffffff160217905550600960019054906101000a900473ffffffffffffffffffffffffffffffffffffffff16600a5f6101000a81548173ffffffffffffffffffffffffffffffffffffffff021916908373ffffffffffffffffffffffffffffffffffffffff160217905550600a5f9054906101000a900473ffffffffffffffffffffffffffffffffffffffff1673ffffffffffffffffffffffffffffffffffffffff1631600b557f4d696e69536f6c69646974790000000000000000000000000000000000000000600c55600c545f6020811061030d5761030c610413565b5b1a60f81b600d5f6101000a81548160ff021916908360f81c02179055507f6900000000000000000000000000000000000000000000000000000000000000600d60016101000a81548160ff021916908360f81c0217905550600c5460016020811061037b5761037a610413565b5b1a60f81b600d60026101000a81548160ff021916908360f81c02179055503480156103a4575f80fd5b50610440565b5f819050919050565b7f4e487b71000000000000000000000000000000000000000000000000000000005f52601160045260245ffd5b5f6103ea826103aa565b91506103f5836103aa565b925082820190508082111561040d5761040c6103b3565b5b92915050565b7f4e487b71000000000000000000000000000000000000000000000000000000005f52603260045260245ffd5b61072e8061044d5f395ff3fe608060405234801561000f575f80fd5b506004361061014b575f3560e01c80639e6ba9c2116100c1578063b69ef8a81161007a578063b69ef8a81461034d578063b78cab651461036b578063b7c19e3f14610389578063e37c6c82146103a7578063eac23280146103c5578063f9bd55cc146103e35761014b565b80639e6ba9c214610299578063a2e7fe8a146102b7578063aa994926146102d5578063ac729403146102f3578063aeb6f29214610311578063af45869e1461032f5761014b565b80632b36a762116101135780632b36a762146101e55780632f3cc525146102035780633f346102146102215780636b1d2c4e1461023f5780636e8d0c9e1461025d578063924b3d211461027b5761014b565b80630aab82201461014f57806318bad2171461016d57806319bff7df1461018b5780631db19d8c146101a95780632543135b146101c7575b5f80fd5b610157610401565b6040516101649190610566565b60405180910390f35b610175610407565b60405161018291906105be565b60405180910390f35b61019361042d565b6040516101a091906105ef565b60405180910390f35b6101b1610433565b6040516101be9190610622565b60405180910390f35b6101cf610445565b6040516101dc91906105ef565b60405180910390f35b6101ed61044b565b6040516101fa9190610622565b60405180910390f35b61020b61045d565b6040516102189190610566565b60405180910390f35b610229610463565b6040516102369190610653565b60405180910390f35b610247610469565b60405161025491906105ef565b60405180910390f35b61026561046f565b60405161027291906105ef565b60405180910390f35b610283610475565b6040516102909190610622565b60405180910390f35b6102a1610487565b6040516102ae9190610622565b60405180910390f35b6102bf610497565b6040516102cc9190610622565b60405180910390f35b6102dd6104a9565b6040516102ea9190610622565b60405180910390f35b6102fb6104bb565b604051610308919061068c565b60405180910390f35b6103196104e0565b60405161032691906106df565b60405180910390f35b6103376104f2565b6040516103449190610566565b60405180910390f35b6103556104f8565b60405161036291906105ef565b60405180910390f35b6103736104fe565b60405161038091906106df565b60405180910390f35b610391610511565b60405161039e9190610622565b60405180910390f35b6103af610523565b6040516103bc9190610622565b60405180910390f35b6103cd610535565b6040516103da91906106df565b60405180910390f35b6103eb610548565b6040516103f891906105ef565b60405180910390f35b60035481565b600960019054906101000a900473ffffffffffffffffffffffffffffffffffffffff1681565b60085481565b5f60069054906101000a900460ff1681565b60045481565b5f60059054906101000a900460ff1681565b60025481565b600c5481565b60075481565b60065481565b5f60029054906101000a900460ff1681565b5f8054906101000a900460ff1681565b5f60039054906101000a900460ff1681565b5f60049054906101000a900460ff1681565b600a5f9054906101000a900473ffffffffffffffffffffffffffffffffffffffff1681565b600d5f9054906101000a900460f81b81565b60015481565b600b5481565b600d60029054906101000a900460f81b81565b5f60019054906101000a900460ff1681565b60095f9054906101000a900460ff1681565b600d60019054906101000a900460f81b81565b60055481565b5f819050919050565b6105608161054e565b82525050565b5f6020820190506105795f830184610557565b92915050565b5f73ffffffffffffffffffffffffffffffffffffffff82169050919050565b5f6105a88261057f565b9050919050565b6105b88161059e565b82525050565b5f6020820190506105d15f8301846105af565b92915050565b5f819050919050565b6105e9816105d7565b82525050565b5f6020820190506106025f8301846105e0565b92915050565b5f8115159050919050565b61061c81610608565b82525050565b5f6020820190506106355f830184610613565b92915050565b5f819050919050565b61064d8161063b565b82525050565b5f6020820190506106665f830184610644565b92915050565b5f6106768261057f565b9050919050565b6106868161066c565b82525050565b5f60208201905061069f5f83018461067d565b92915050565b5f7fff0000000000000000000000000000000000000000000000000000000000000082169050919050565b6106d9816106a5565b82525050565b5f6020820190506106f25f8301846106d0565b9291505056fea2646970667358221220a714f2b37210d93d3d32715531df95554789687cf7713032945be2e3126114e064736f6c63430008190033",
					"opcodes": "PUSH1 0x80 PUSH1 0x40 MSTORE PUSH1 0x1 PUSH0 DUP1 PUSH2 0x100 EXP DUP2 SLOAD DUP2 PUSH1 0xFF MUL NOT AND SWAP1 DUP4 ISZERO ISZERO MUL OR SWAP1 SSTORE POP PUSH0 DUP1 SLOAD SWAP1 PUSH2 0x100 EXP SWAP1 DIV PUSH1 0xFF AND ISZERO PUSH0 PUSH1 0x2 PUSH2 0x100 EXP DUP2 SLOAD DUP2 PUSH1 0xFF MUL NOT AND SWAP1 DUP4 ISZERO ISZERO MUL OR SWAP1 SSTORE POP PUSH0 DUP1 SLOAD SWAP1 PUSH2 0x100 EXP SWAP1 DIV PUSH1 0xFF AND DUP1 ISZERO PUSH2 0x67 JUMPI POP PUSH0 PUSH1 0x2 SWAP1 SLOAD SWAP1 PUSH2 0x100 EXP SWAP1 DIV PUSH1 0xFF AND JUMPDEST PUSH0 PUSH1 0x3 PUSH2 0x100 EXP DUP2 SLOAD DUP2 PUSH1 0xFF MUL NOT AND SWAP1 DUP4 ISZERO ISZERO MUL OR SWAP1 SSTORE POP PUSH0 DUP1 SLOAD SWAP1 PUSH2 0x100 EXP SWAP1 DIV PUSH1 0xFF AND DUP1 PUSH2 0xA2 JUMPI POP PUSH0 PUSH1 0x2 SWAP1 SLOAD SWAP1 PUSH2 0x100 EXP SWAP1 DIV PUSH1 0xFF AND JUMPDEST PUSH0 PUSH1 0x4 PUSH2 0x100 EXP DUP2 SLOAD DUP2 PUSH1 0xFF MUL NOT AND SWAP1 DUP4 ISZERO ISZERO MUL OR SWAP1 SSTORE POP PUSH0 PUSH1 0x2 SWAP1 SLOAD SWAP1 PUSH2 0x100 EXP SWAP1 DIV PUSH1 0xFF AND ISZERO ISZERO PUSH0 DUP1 SLOAD SWAP1 PUSH2 0x100 EXP SWAP1 DIV PUSH1 0xFF AND ISZERO ISZERO EQ PUSH0 PUSH1 0x5 PUSH2 0x100 EXP DUP2 SLOAD DUP2 PUSH1 0xFF MUL NOT AND SWAP1 DUP4 ISZERO ISZERO MUL OR SWAP1 SSTORE POP PUSH0 PUSH1 0x2 SWAP1 SLOAD SWAP1 PUSH2 0x100 EXP SWAP1 DIV PUSH1 0xFF AND ISZERO ISZERO PUSH0 DUP1 SLOAD SWAP1 PUSH2 0x100 EXP SWAP1 DIV PUSH1 0xFF AND ISZERO ISZERO EQ ISZERO PUSH0 PUSH1 0x6 PUSH2 0x100 EXP DUP2 SLOAD DUP2 PUSH1 0xFF MUL NOT AND SWAP1 DUP4 ISZERO ISZERO MUL OR SWAP1 SSTORE POP PUSH32 0xFFFFFFFFFFFFFFFFFFFFFFFFFFFFFFFFFFFFFFFFFFFFFFFFFFFFFFFFFFFFFFFF PUSH1 0x1 SSTORE PUSH32 0x8000000000000000000000000000000000000000000000000000000000000000 PUSH1 0x2 SSTORE PUSH32 0x7FFFFFFFFFFFFFFFFFFFFFFFFFFFFFFFFFFFFFFFFFFFFFFFFFFFFFFFFFFFFFFF PUSH1 0x3 SSTORE PUSH1 0x1 PUSH1 0x4 SSTORE PUSH4 0x13489AA PUSH1 0x5 SSTORE PUSH1 0x1 PUSH1 0x5 SLOAD PUSH2 0x1B5 SWAP2 SWAP1 PUSH2 0x3E0 JUMP JUMPDEST PUSH1 0x6 SSTORE PUSH1 0x4 PUSH1 0x7 SSTORE PUSH1 0x1 PUSH1 0x8 SSTORE PUSH1 0x8 SLOAD PUSH1 0x7 SLOAD GT PUSH1 0x9 PUSH0 PUSH2 0x100 EXP DUP2 SLOAD DUP2 PUSH1 0xFF MUL NOT AND SWAP1 DUP4 ISZERO ISZERO MUL OR SWAP1 SSTORE POP PUSH20 0x7A58C0BE72BE218B41C608B7FE7C5BB630736C71 PUSH1 0x9 PUSH1 0x1 PUSH2 0x100 EXP DUP2 SLOAD DUP2 PUSH20 0xFFFFFFFFFFFFFFFFFFFFFFFFFFFFFFFFFFFFFFFF MUL NOT AND SWAP1 DUP4 PUSH20 0xFFFFFFFFFFFFFFFFFFFFFFFFFFFFFFFFFFFFFFFF AND MUL OR SWAP1 SSTORE POP PUSH1 0x9 PUSH1 0x1 SWAP1 SLOAD SWAP1 PUSH2 0x100 EXP SWAP1 DIV PUSH20 0xFFFFFFFFFFFFFFFFFFFFFFFFFFFFFFFFFFFFFFFF AND PUSH1 0xA PUSH0 PUSH2 0x100 EXP DUP2 SLOAD DUP2 PUSH20 0xFFFFFFFFFFFFFFFFFFFFFFFFFFFFFFFFFFFFFFFF MUL NOT AND SWAP1 DUP4 PUSH20 0xFFFFFFFFFFFFFFFFFFFFFFFFFFFFFFFFFFFFFFFF AND MUL OR SWAP1 SSTORE POP PUSH1 0xA PUSH0 SWAP1 SLOAD SWAP1 PUSH2 0x100 EXP SWAP1 DIV PUSH20 0xFFFFFFFFFFFFFFFFFFFFFFFFFFFFFFFFFFFFFFFF AND PUSH20 0xFFFFFFFFFFFFFFFFFFFFFFFFFFFFFFFFFFFFFFFF AND BALANCE PUSH1 0xB SSTORE PUSH32 0x4D696E69536F6C69646974790000000000000000000000000000000000000000 PUSH1 0xC SSTORE PUSH1 0xC SLOAD PUSH0 PUSH1 0x20 DUP2 LT PUSH2 0x30D JUMPI PUSH2 0x30C PUSH2 0x413 JUMP JUMPDEST JUMPDEST BYTE PUSH1 0xF8 SHL PUSH1 0xD PUSH0 PUSH2 0x100 EXP DUP2 SLOAD DUP2 PUSH1 0xFF MUL NOT AND SWAP1 DUP4 PUSH1 0xF8 SHR MUL OR SWAP1 SSTORE POP PUSH32 0x6900000000000000000000000000000000000000000000000000000000000000 PUSH1 0xD PUSH1 0x1 PUSH2 0x100 EXP DUP2 SLOAD DUP2 PUSH1 0xFF MUL NOT AND SWAP1 DUP4 PUSH1 0xF8 SHR MUL OR SWAP1 SSTORE POP PUSH1 0xC SLOAD PUSH1 0x1 PUSH1 0x20 DUP2 LT PUSH2 0x37B JUMPI PUSH2 0x37A PUSH2 0x413 JUMP JUMPDEST JUMPDEST BYTE PUSH1 0xF8 SHL PUSH1 0xD PUSH1 0x2 PUSH2 0x100 EXP DUP2 SLOAD DUP2 PUSH1 0xFF MUL NOT AND SWAP1 DUP4 PUSH1 0xF8 SHR MUL OR SWAP1 SSTORE POP CALLVALUE DUP1 ISZERO PUSH2 0x3A4 JUMPI PUSH0 DUP1 REVERT JUMPDEST POP PUSH2 0x440 JUMP JUMPDEST PUSH0 DUP2 SWAP1 POP SWAP2 SWAP1 POP JUMP JUMPDEST PUSH32 0x4E487B7100000000000000000000000000000000000000000000000000000000 PUSH0 MSTORE PUSH1 0x11 PUSH1 0x4 MSTORE PUSH1 0x24 PUSH0 REVERT JUMPDEST PUSH0 PUSH2 0x3EA DUP3 PUSH2 0x3AA JUMP JUMPDEST SWAP2 POP PUSH2 0x3F5 DUP4 PUSH2 0x3AA JUMP JUMPDEST SWAP3 POP DUP3 DUP3 ADD SWAP1 POP DUP1 DUP3 GT ISZERO PUSH2 0x40D JUMPI PUSH2 0x40C PUSH2 0x3B3 JUMP JUMPDEST JUMPDEST SWAP3 SWAP2 POP POP JUMP JUMPDEST PUSH32 0x4E487B7100000000000000000000000000000000000000000000000000000000 PUSH0 MSTORE PUSH1 0x32 PUSH1 0x4 MSTORE PUSH1 0x24 PUSH0 REVERT JUMPDEST PUSH2 0x72E DUP1 PUSH2 0x44D PUSH0 CODECOPY PUSH0 RETURN INVALID PUSH1 0x80 PUSH1 0x40 MSTORE CALLVALUE DUP1 ISZERO PUSH2 0xF JUMPI PUSH0 DUP1 REVERT JUMPDEST POP PUSH1 0x4 CALLDATASIZE LT PUSH2 0x14B JUMPI PUSH0 CALLDATALOAD PUSH1 0xE0 SHR DUP1 PUSH4 0x9E6BA9C2 GT PUSH2 0xC1 JUMPI DUP1 PUSH4 0xB69EF8A8 GT PUSH2 0x7A JUMPI DUP1 PUSH4 0xB69EF8A8 EQ PUSH2 0x34D JUMPI DUP1 PUSH4 0xB78CAB65 EQ PUSH2 0x36B JUMPI DUP1 PUSH4 0xB7C19E3F EQ PUSH2 0x389 JUMPI DUP1 PUSH4 0xE37C6C82 EQ PUSH2 0x3A7 JUMPI DUP1 PUSH4 0xEAC23280 EQ PUSH2 0x3C5 JUMPI DUP1 PUSH4 0xF9BD55CC EQ PUSH2 0x3E3 JUMPI PUSH2 0x14B JUMP JUMPDEST DUP1 PUSH4 0x9E6BA9C2 EQ PUSH2 0x299 JUMPI DUP1 PUSH4 0xA2E7FE8A EQ PUSH2 0x2B7 JUMPI DUP1 PUSH4 0xAA994926 EQ PUSH2 0x2D5 JUMPI DUP1 PUSH4 0xAC729403 EQ PUSH2 0x2F3 JUMPI DUP1 PUSH4 0xAEB6F292 EQ PUSH2 0x311 JUMPI DUP1 PUSH4 0xAF45869E EQ PUSH2 0x32F JUMPI PUSH2 0x14B JUMP JUMPDEST DUP1 PUSH4 0x2B36A762 GT PUSH2 0x113 JUMPI DUP1 PUSH4 0x2B36A762 EQ PUSH2 0x1E5 JUMPI DUP1 PUSH4 0x2F3CC525 EQ PUSH2 0x203 JUMPI DUP1 PUSH4 0x3F346102 EQ PUSH2 0x221 JUMPI DUP1 PUSH4 0x6B1D2C4E EQ PUSH2 0x23F JUMPI DUP1 PUSH4 0x6E8D0C9E EQ PUSH2 0x25D JUMPI DUP1 PUSH4 0x924B3D21 EQ PUSH2 0x27B JUMPI PUSH2 0x14B JUMP JUMPDEST DUP1 PUSH4 0xAAB8220 EQ PUSH2 0x14F JUMPI DUP1 PUSH4 0x18BAD217 EQ PUSH2 0x16D JUMPI DUP1 PUSH4 0x19BFF7DF EQ PUSH2 0x18B JUMPI DUP1 PUSH4 0x1DB19D8C EQ PUSH2 0x1A9 JUMPI DUP1 PUSH4 0x2543135B EQ PUSH2 0x1C7 JUMPI JUMPDEST PUSH0 DUP1 REVERT JUMPDEST PUSH2 0x157 PUSH2 0x401 JUMP JUMPDEST PUSH1 0x40 MLOAD PUSH2 0x164 SWAP2 SWAP1 PUSH2 0x566 JUMP JUMPDEST PUSH1 0x40 MLOAD DUP1 SWAP2 SUB SWAP1 RETURN JUMPDEST PUSH2 0x175 PUSH2 0x407 JUMP JUMPDEST PUSH1 0x40 MLOAD PUSH2 0x182 SWAP2 SWAP1 PUSH2 0x5BE JUMP JUMPDEST PUSH1 0x40 MLOAD DUP1 SWAP2 SUB SWAP1 RETURN JUMPDEST PUSH2 0x193 PUSH2 0x42D JUMP JUMPDEST PUSH1 0x40 MLOAD PUSH2 0x1A0 SWAP2 SWAP1 PUSH2 0x5EF JUMP JUMPDEST PUSH1 0x40 MLOAD DUP1 SWAP2 SUB SWAP1 RETURN JUMPDEST PUSH2 0x1B1 PUSH2 0x433 JUMP JUMPDEST PUSH1 0x40 MLOAD PUSH2 0x1BE SWAP2 SWAP1 PUSH2 0x622 JUMP JUMPDEST PUSH1 0x40 MLOAD DUP1 SWAP2 SUB SWAP1 RETURN JUMPDEST PUSH2 0x1CF PUSH2 0x445 JUMP JUMPDEST PUSH1 0x40 MLOAD PUSH2 0x1DC SWAP2 SWAP1 PUSH2 0x5EF JUMP JUMPDEST PUSH1 0x40 MLOAD DUP1 SWAP2 SUB SWAP1 RETURN JUMPDEST PUSH2 0x1ED PUSH2 0x44B JUMP JUMPDEST PUSH1 0x40 MLOAD PUSH2 0x1FA SWAP2 SWAP1 PUSH2 0x622 JUMP JUMPDEST PUSH1 0x40 MLOAD DUP1 SWAP2 SUB SWAP1 RETURN JUMPDEST PUSH2 0x20B PUSH2 0x45D JUMP JUMPDEST PUSH1 0x40 MLOAD PUSH2 0x218 SWAP2 SWAP1 PUSH2 0x566 JUMP JUMPDEST PUSH1 0x40 MLOAD DUP1 SWAP2 SUB SWAP1 RETURN JUMPDEST PUSH2 0x229 PUSH2 0x463 JUMP JUMPDEST PUSH1 0x40 MLOAD PUSH2 0x236 SWAP2 SWAP1 PUSH2 0x653 JUMP JUMPDEST PUSH1 0x40 MLOAD DUP1 SWAP2 SUB SWAP1 RETURN JUMPDEST PUSH2 0x247 PUSH2 0x469 JUMP JUMPDEST PUSH1 0x40 MLOAD PUSH2 0x254 SWAP2 SWAP1 PUSH2 0x5EF JUMP JUMPDEST PUSH1 0x40 MLOAD DUP1 SWAP2 SUB SWAP1 RETURN JUMPDEST PUSH2 0x265 PUSH2 0x46F JUMP JUMPDEST PUSH1 0x40 MLOAD PUSH2 0x272 SWAP2 SWAP1 PUSH2 0x5EF JUMP JUMPDEST PUSH1 0x40 MLOAD DUP1 SWAP2 SUB SWAP1 RETURN JUMPDEST PUSH2 0x283 PUSH2 0x475 JUMP JUMPDEST PUSH1 0x40 MLOAD PUSH2 0x290 SWAP2 SWAP1 PUSH2 0x622 JUMP JUMPDEST PUSH1 0x40 MLOAD DUP1 SWAP2 SUB SWAP1 RETURN JUMPDEST PUSH2 0x2A1 PUSH2 0x487 JUMP JUMPDEST PUSH1 0x40 MLOAD PUSH2 0x2AE SWAP2 SWAP1 PUSH2 0x622 JUMP JUMPDEST PUSH1 0x40 MLOAD DUP1 SWAP2 SUB SWAP1 RETURN JUMPDEST PUSH2 0x2BF PUSH2 0x497 JUMP JUMPDEST PUSH1 0x40 MLOAD PUSH2 0x2CC SWAP2 SWAP1 PUSH2 0x622 JUMP JUMPDEST PUSH1 0x40 MLOAD DUP1 SWAP2 SUB SWAP1 RETURN JUMPDEST PUSH2 0x2DD PUSH2 0x4A9 JUMP JUMPDEST PUSH1 0x40 MLOAD PUSH2 0x2EA SWAP2 SWAP1 PUSH2 0x622 JUMP JUMPDEST PUSH1 0x40 MLOAD DUP1 SWAP2 SUB SWAP1 RETURN JUMPDEST PUSH2 0x2FB PUSH2 0x4BB JUMP JUMPDEST PUSH1 0x40 MLOAD PUSH2 0x308 SWAP2 SWAP1 PUSH2 0x68C JUMP JUMPDEST PUSH1 0x40 MLOAD DUP1 SWAP2 SUB SWAP1 RETURN JUMPDEST PUSH2 0x319 PUSH2 0x4E0 JUMP JUMPDEST PUSH1 0x40 MLOAD PUSH2 0x326 SWAP2 SWAP1 PUSH2 0x6DF JUMP JUMPDEST PUSH1 0x40 MLOAD DUP1 SWAP2 SUB SWAP1 RETURN JUMPDEST PUSH2 0x337 PUSH2 0x4F2 JUMP JUMPDEST PUSH1 0x40 MLOAD PUSH2 0x344 SWAP2 SWAP1 PUSH2 0x566 JUMP JUMPDEST PUSH1 0x40 MLOAD DUP1 SWAP2 SUB SWAP1 RETURN JUMPDEST PUSH2 0x355 PUSH2 0x4F8 JUMP JUMPDEST PUSH1 0x40 MLOAD PUSH2 0x362 SWAP2 SWAP1 PUSH2 0x5EF JUMP JUMPDEST PUSH1 0x40 MLOAD DUP1 SWAP2 SUB SWAP1 RETURN JUMPDEST PUSH2 0x373 PUSH2 0x4FE JUMP JUMPDEST PUSH1 0x40 MLOAD PUSH2 0x380 SWAP2 SWAP1 PUSH2 0x6DF JUMP JUMPDEST PUSH1 0x40 MLOAD DUP1 SWAP2 SUB SWAP1 RETURN JUMPDEST PUSH2 0x391 PUSH2 0x511 JUMP JUMPDEST PUSH1 0x40 MLOAD PUSH2 0x39E SWAP2 SWAP1 PUSH2 0x622 JUMP JUMPDEST PUSH1 0x40 MLOAD DUP1 SWAP2 SUB SWAP1 RETURN JUMPDEST PUSH2 0x3AF PUSH2 0x523 JUMP JUMPDEST PUSH1 0x40 MLOAD PUSH2 0x3BC SWAP2 SWAP1 PUSH2 0x622 JUMP JUMPDEST PUSH1 0x40 MLOAD DUP1 SWAP2 SUB SWAP1 RETURN JUMPDEST PUSH2 0x3CD PUSH2 0x535 JUMP JUMPDEST PUSH1 0x40 MLOAD PUSH2 0x3DA SWAP2 SWAP1 PUSH2 0x6DF JUMP JUMPDEST PUSH1 0x40 MLOAD DUP1 SWAP2 SUB SWAP1 RETURN JUMPDEST PUSH2 0x3EB PUSH2 0x548 JUMP JUMPDEST PUSH1 0x40 MLOAD PUSH2 0x3F8 SWAP2 SWAP1 PUSH2 0x5EF JUMP JUMPDEST PUSH1 0x40 MLOAD DUP1 SWAP2 SUB SWAP1 RETURN JUMPDEST PUSH1 0x3 SLOAD DUP2 JUMP JUMPDEST PUSH1 0x9 PUSH1 0x1 SWAP1 SLOAD SWAP1 PUSH2 0x100 EXP SWAP1 DIV PUSH20 0xFFFFFFFFFFFFFFFFFFFFFFFFFFFFFFFFFFFFFFFF AND DUP2 JUMP JUMPDEST PUSH1 0x8 SLOAD DUP2 JUMP JUMPDEST PUSH0 PUSH1 0x6 SWAP1 SLOAD SWAP1 PUSH2 0x100 EXP SWAP1 DIV PUSH1 0xFF AND DUP2 JUMP JUMPDEST PUSH1 0x4 SLOAD DUP2 JUMP JUMPDEST PUSH0 PUSH1 0x5 SWAP1 SLOAD SWAP1 PUSH2 0x100 EXP SWAP1 DIV PUSH1 0xFF AND DUP2 JUMP JUMPDEST PUSH1 0x2 SLOAD DUP2 JUMP JUMPDEST PUSH1 0xC SLOAD DUP2 JUMP JUMPDEST PUSH1 0x7 SLOAD DUP2 JUMP JUMPDEST PUSH1 0x6 SLOAD DUP2 JUMP JUMPDEST PUSH0 PUSH1 0x2 SWAP1 SLOAD SWAP1 PUSH2 0x100 EXP SWAP1 DIV PUSH1 0xFF AND DUP2 JUMP JUMPDEST PUSH0 DUP1 SLOAD SWAP1 PUSH2 0x100 EXP SWAP1 DIV PUSH1 0xFF AND DUP2 JUMP JUMPDEST PUSH0 PUSH1 0x3 SWAP1 SLOAD SWAP1 PUSH2 0x100 EXP SWAP1 DIV PUSH1 0xFF AND DUP2 JUMP JUMPDEST PUSH0 PUSH1 0x4 SWAP1 SLOAD SWAP1 PUSH2 0x100 EXP SWAP1 DIV PUSH1 0xFF AND DUP2 JUMP JUMPDEST PUSH1 0xA PUSH0 SWAP1 SLOAD SWAP1 PUSH2 0x100 EXP SWAP1 DIV PUSH20 0xFFFFFFFFFFFFFFFFFFFFFFFFFFFFFFFFFFFFFFFF AND DUP2 JUMP JUMPDEST PUSH1 0xD PUSH0 SWAP1 SLOAD SWAP1 PUSH2 0x100 EXP SWAP1 DIV PUSH1 0xF8 SHL DUP2 JUMP JUMPDEST PUSH1 0x1 SLOAD DUP2 JUMP JUMPDEST PUSH1 0xB SLOAD DUP2 JUMP JUMPDEST PUSH1 0xD PUSH1 0x2 SWAP1 SLOAD SWAP1 PUSH2 0x100 EXP SWAP1 DIV PUSH1 0xF8 SHL DUP2 JUMP JUMPDEST PUSH0 PUSH1 0x1 SWAP1 SLOAD SWAP1 PUSH2 0x100 EXP SWAP1 DIV PUSH1 0xFF AND DUP2 JUMP JUMPDEST PUSH1 0x9 PUSH0 SWAP1 SLOAD SWAP1 PUSH2 0x100 EXP SWAP1 DIV PUSH1 0xFF AND DUP2 JUMP JUMPDEST PUSH1 0xD PUSH1 0x1 SWAP1 SLOAD SWAP1 PUSH2 0x100 EXP SWAP1 DIV PUSH1 0xF8 SHL DUP2 JUMP JUMPDEST PUSH1 0x5 SLOAD DUP2 JUMP JUMPDEST PUSH0 DUP2 SWAP1 POP SWAP2 SWAP1 POP JUMP JUMPDEST PUSH2 0x560 DUP2 PUSH2 0x54E JUMP JUMPDEST DUP3 MSTORE POP POP JUMP JUMPDEST PUSH0 PUSH1 0x20 DUP3 ADD SWAP1 POP PUSH2 0x579 PUSH0 DUP4 ADD DUP5 PUSH2 0x557 JUMP JUMPDEST SWAP3 SWAP2 POP POP JUMP JUMPDEST PUSH0 PUSH20 0xFFFFFFFFFFFFFFFFFFFFFFFFFFFFFFFFFFFFFFFF DUP3 AND SWAP1 POP SWAP2 SWAP1 POP JUMP JUMPDEST PUSH0 PUSH2 0x5A8 DUP3 PUSH2 0x57F JUMP JUMPDEST SWAP1 POP SWAP2 SWAP1 POP JUMP JUMPDEST PUSH2 0x5B8 DUP2 PUSH2 0x59E JUMP JUMPDEST DUP3 MSTORE POP POP JUMP JUMPDEST PUSH0 PUSH1 0x20 DUP3 ADD SWAP1 POP PUSH2 0x5D1 PUSH0 DUP4 ADD DUP5 PUSH2 0x5AF JUMP JUMPDEST SWAP3 SWAP2 POP POP JUMP JUMPDEST PUSH0 DUP2 SWAP1 POP SWAP2 SWAP1 POP JUMP JUMPDEST PUSH2 0x5E9 DUP2 PUSH2 0x5D7 JUMP JUMPDEST DUP3 MSTORE POP POP JUMP JUMPDEST PUSH0 PUSH1 0x20 DUP3 ADD SWAP1 POP PUSH2 0x602 PUSH0 DUP4 ADD DUP5 PUSH2 0x5E0 JUMP JUMPDEST SWAP3 SWAP2 POP POP JUMP JUMPDEST PUSH0 DUP2 ISZERO ISZERO SWAP1 POP SWAP2 SWAP1 POP JUMP JUMPDEST PUSH2 0x61C DUP2 PUSH2 0x608 JUMP JUMPDEST DUP3 MSTORE POP POP JUMP JUMPDEST PUSH0 PUSH1 0x20 DUP3 ADD SWAP1 POP PUSH2 0x635 PUSH0 DUP4 ADD DUP5 PUSH2 0x613 JUMP JUMPDEST SWAP3 SWAP2 POP POP JUMP JUMPDEST PUSH0 DUP2 SWAP1 POP SWAP2 SWAP1 POP JUMP JUMPDEST PUSH2 0x64D DUP2 PUSH2 0x63B JUMP JUMPDEST DUP3 MSTORE POP POP JUMP JUMPDEST PUSH0 PUSH1 0x20 DUP3 ADD SWAP1 POP PUSH2 0x666 PUSH0 DUP4 ADD DUP5 PUSH2 0x644 JUMP JUMPDEST SWAP3 SWAP2 POP POP JUMP JUMPDEST PUSH0 PUSH2 0x676 DUP3 PUSH2 0x57F JUMP JUMPDEST SWAP1 POP SWAP2 SWAP1 POP JUMP JUMPDEST PUSH2 0x686 DUP2 PUSH2 0x66C JUMP JUMPDEST DUP3 MSTORE POP POP JUMP JUMPDEST PUSH0 PUSH1 0x20 DUP3 ADD SWAP1 POP PUSH2 0x69F PUSH0 DUP4 ADD DUP5 PUSH2 0x67D JUMP JUMPDEST SWAP3 SWAP2 POP POP JUMP JUMPDEST PUSH0 PUSH32 0xFF00000000000000000000000000000000000000000000000000000000000000 DUP3 AND SWAP1 POP SWAP2 SWAP1 POP JUMP JUMPDEST PUSH2 0x6D9 DUP2 PUSH2 0x6A5 JUMP JUMPDEST DUP3 MSTORE POP POP JUMP JUMPDEST PUSH0 PUSH1 0x20 DUP3 ADD SWAP1 POP PUSH2 0x6F2 PUSH0 DUP4 ADD DUP5 PUSH2 0x6D0 JUMP JUMPDEST SWAP3 SWAP2 POP POP JUMP INVALID LOG2 PUSH5 0x6970667358 0x22 SLT KECCAK256 0xA7 EQ CALLCODE 0xB3 PUSH19 0x10D93D3D32715531DF95554789687CF7713032 SWAP5 JUMPDEST 0xE2 0xE3 SLT PUSH2 0x14E0 PUSH5 0x736F6C6343 STOP ADDMOD NOT STOP CALLER "
				},
				"gasEstimates": {
					"creation": {
						"codeDepositCost": "367600",
						"executionCost": "infinite",
						"totalCost": "infinite"
					},
					"external": {
						"_address()": "2605",
						"_address1()": "2597",
						"_bool()": "2486",
						"_bool1()": "2649",
						"_bool2()": "2561",
						"_bool3()": "2583",
						"_bool4()": "2539",
						"_bool5()": "2606",
						"_byte()": "2577",
						"_byte1()": "2627",
						"_byte2()": "2561",
						"_byte32()": "2492",
						"_default_bool()": "2582",
						"_int()": "2558",
						"_maxInt()": "2449",
						"_minInt()": "2470",
						"_number()": "2557",
						"_number1()": "2536",
						"_number2()": "2514",
						"_number3()": "2493",
						"_numberbool()": "2554",
						"_uint()": "2537",
						"balance()": "2447"
					}
				},
				"methodIdentifiers": {
					"_address()": "18bad217",
					"_address1()": "ac729403",
					"_bool()": "9e6ba9c2",
					"_bool1()": "924b3d21",
					"_bool2()": "a2e7fe8a",
					"_bool3()": "aa994926",
					"_bool4()": "2b36a762",
					"_bool5()": "1db19d8c",
					"_byte()": "aeb6f292",
					"_byte1()": "eac23280",
					"_byte2()": "b78cab65",
					"_byte32()": "3f346102",
					"_default_bool()": "b7c19e3f",
					"_int()": "af45869e",
					"_maxInt()": "0aab8220",
					"_minInt()": "2f3cc525",
					"_number()": "f9bd55cc",
					"_number1()": "6e8d0c9e",
					"_number2()": "6b1d2c4e",
					"_number3()": "19bff7df",
					"_numberbool()": "e37c6c82",
					"_uint()": "2543135b",
					"balance()": "b69ef8a8"
				}
			},
			"storageLayout": {
				"storage": [
					{
						"astId": 4,
						"contract": "02ValueType.sol:ValueTypes",
						"label": "_bool",
						"offset": 0,
						"slot": "0",
						"type": "t_bool"
					},
					{
						"astId": 6,
						"contract": "02ValueType.sol:ValueTypes",
						"label": "_default_bool",
						"offset": 1,
						"slot": "0",
						"type": "t_bool"
					},
					{
						"astId": 10,
						"contract": "02ValueType.sol:ValueTypes",
						"label": "_bool1",
						"offset": 2,
						"slot": "0",
						"type": "t_bool"
					},
					{
						"astId": 15,
						"contract": "02ValueType.sol:ValueTypes",
						"label": "_bool2",
						"offset": 3,
						"slot": "0",
						"type": "t_bool"
					},
					{
						"astId": 20,
						"contract": "02ValueType.sol:ValueTypes",
						"label": "_bool3",
						"offset": 4,
						"slot": "0",
						"type": "t_bool"
					},
					{
						"astId": 25,
						"contract": "02ValueType.sol:ValueTypes",
						"label": "_bool4",
						"offset": 5,
						"slot": "0",
						"type": "t_bool"
					},
					{
						"astId": 30,
						"contract": "02ValueType.sol:ValueTypes",
						"label": "_bool5",
						"offset": 6,
						"slot": "0",
						"type": "t_bool"
					},
					{
						"astId": 34,
						"contract": "02ValueType.sol:ValueTypes",
						"label": "_int",
						"offset": 0,
						"slot": "1",
						"type": "t_int256"
					},
					{
						"astId": 41,
						"contract": "02ValueType.sol:ValueTypes",
						"label": "_minInt",
						"offset": 0,
						"slot": "2",
						"type": "t_int256"
					},
					{
						"astId": 48,
						"contract": "02ValueType.sol:ValueTypes",
						"label": "_maxInt",
						"offset": 0,
						"slot": "3",
						"type": "t_int256"
					},
					{
						"astId": 51,
						"contract": "02ValueType.sol:ValueTypes",
						"label": "_uint",
						"offset": 0,
						"slot": "4",
						"type": "t_uint256"
					},
					{
						"astId": 54,
						"contract": "02ValueType.sol:ValueTypes",
						"label": "_number",
						"offset": 0,
						"slot": "5",
						"type": "t_uint256"
					},
					{
						"astId": 59,
						"contract": "02ValueType.sol:ValueTypes",
						"label": "_number1",
						"offset": 0,
						"slot": "6",
						"type": "t_uint256"
					},
					{
						"astId": 64,
						"contract": "02ValueType.sol:ValueTypes",
						"label": "_number2",
						"offset": 0,
						"slot": "7",
						"type": "t_uint256"
					},
					{
						"astId": 69,
						"contract": "02ValueType.sol:ValueTypes",
						"label": "_number3",
						"offset": 0,
						"slot": "8",
						"type": "t_uint256"
					},
					{
						"astId": 74,
						"contract": "02ValueType.sol:ValueTypes",
						"label": "_numberbool",
						"offset": 0,
						"slot": "9",
						"type": "t_bool"
					},
					{
						"astId": 77,
						"contract": "02ValueType.sol:ValueTypes",
						"label": "_address",
						"offset": 1,
						"slot": "9",
						"type": "t_address"
					},
					{
						"astId": 83,
						"contract": "02ValueType.sol:ValueTypes",
						"label": "_address1",
						"offset": 0,
						"slot": "10",
						"type": "t_address_payable"
					},
					{
						"astId": 87,
						"contract": "02ValueType.sol:ValueTypes",
						"label": "balance",
						"offset": 0,
						"slot": "11",
						"type": "t_uint256"
					},
					{
						"astId": 90,
						"contract": "02ValueType.sol:ValueTypes",
						"label": "_byte32",
						"offset": 0,
						"slot": "12",
						"type": "t_bytes32"
					},
					{
						"astId": 95,
						"contract": "02ValueType.sol:ValueTypes",
						"label": "_byte",
						"offset": 0,
						"slot": "13",
						"type": "t_bytes1"
					},
					{
						"astId": 98,
						"contract": "02ValueType.sol:ValueTypes",
						"label": "_byte1",
						"offset": 1,
						"slot": "13",
						"type": "t_bytes1"
					},
					{
						"astId": 103,
						"contract": "02ValueType.sol:ValueTypes",
						"label": "_byte2",
						"offset": 2,
						"slot": "13",
						"type": "t_bytes1"
					}
				],
				"types": {
					"t_address": {
						"encoding": "inplace",
						"label": "address",
						"numberOfBytes": "20"
					},
					"t_address_payable": {
						"encoding": "inplace",
						"label": "address payable",
						"numberOfBytes": "20"
					},
					"t_bool": {
						"encoding": "inplace",
						"label": "bool",
						"numberOfBytes": "1"
					},
					"t_bytes1": {
						"encoding": "inplace",
						"label": "bytes1",
						"numberOfBytes": "1"
					},
					"t_bytes32": {
						"encoding": "inplace",
						"label": "bytes32",
						"numberOfBytes": "32"
					},
					"t_int256": {
						"encoding": "inplace",
						"label": "int256",
						"numberOfBytes": "32"
					},
					"t_uint256": {
						"encoding": "inplace",
						"label": "uint256",
						"numberOfBytes": "32"
					}
				}
			},
			"userdoc": {
				"kind": "user",
				"methods": {},
				"version": 1
			}
		}
	}
}